{
  "contractName": "ParkingSpace",
  "abi": [
    {
      "inputs": [],
      "stateMutability": "nonpayable",
      "type": "constructor"
    },
    {
      "inputs": [],
      "name": "OnlyOwner",
      "type": "error"
    },
    {
      "inputs": [],
      "name": "ParkHasOwner",
      "type": "error"
    },
    {
      "inputs": [
        {
          "internalType": "bytes16",
          "name": "_parkNumber",
          "type": "bytes16"
        }
      ],
      "name": "releasePark",
      "outputs": [],
      "stateMutability": "payable",
      "type": "function",
      "payable": true
    },
    {
      "inputs": [
        {
          "internalType": "bytes16",
          "name": "_parkNumber",
          "type": "bytes16"
        },
        {
          "internalType": "bytes32",
          "name": "proof",
          "type": "bytes32"
        }
      ],
      "name": "bookPark",
      "outputs": [
        {
          "internalType": "bytes32",
          "name": "",
          "type": "bytes32"
        }
      ],
      "stateMutability": "payable",
      "type": "function",
      "payable": true
    },
    {
      "inputs": [
        {
          "internalType": "address",
          "name": "newOwner",
          "type": "address"
        }
      ],
      "name": "transferOwnership",
      "outputs": [],
      "stateMutability": "nonpayable",
      "type": "function"
    },
    {
      "inputs": [],
      "name": "getContractOwner",
      "outputs": [
        {
          "internalType": "address",
          "name": "",
          "type": "address"
        }
      ],
      "stateMutability": "view",
      "type": "function",
      "constant": true
    },
    {
      "inputs": [],
      "name": "getParkCount",
      "outputs": [
        {
          "internalType": "uint256",
          "name": "",
          "type": "uint256"
        }
      ],
      "stateMutability": "view",
      "type": "function",
      "constant": true
    },
    {
      "inputs": [],
      "name": "getOwnedParkList",
      "outputs": [
        {
          "components": [
            {
              "internalType": "uint256",
              "name": "id",
              "type": "uint256"
            },
            {
              "internalType": "bytes16",
              "name": "parkNumber",
              "type": "bytes16"
            },
            {
              "internalType": "uint256",
              "name": "startTimeStamp",
              "type": "uint256"
            },
            {
              "internalType": "uint256",
              "name": "price",
              "type": "uint256"
            },
            {
              "internalType": "bytes32",
              "name": "proof",
              "type": "bytes32"
            },
            {
              "internalType": "address",
              "name": "owner",
              "type": "address"
            },
            {
              "internalType": "bool",
              "name": "valid",
              "type": "bool"
            },
            {
              "internalType": "enum ParkingSpace.State",
              "name": "state",
              "type": "uint8"
            }
          ],
          "internalType": "struct ParkingSpace.Space[]",
          "name": "",
          "type": "tuple[]"
        }
      ],
      "stateMutability": "view",
      "type": "function",
      "constant": true
    },
    {
      "inputs": [],
      "name": "getParkingPool",
      "outputs": [
        {
          "components": [
            {
              "internalType": "bytes16",
              "name": "parkNumber",
              "type": "bytes16"
            },
            {
              "internalType": "address",
              "name": "owner",
              "type": "address"
            },
            {
              "internalType": "enum ParkingSpace.State",
              "name": "state",
              "type": "uint8"
            }
          ],
          "internalType": "struct ParkingSpace.General[]",
          "name": "",
          "type": "tuple[]"
        }
      ],
      "stateMutability": "view",
      "type": "function",
      "constant": true
    },
    {
      "inputs": [
        {
          "internalType": "string",
          "name": "_parkNumberString",
          "type": "string"
        }
      ],
      "name": "getGeneralParking",
      "outputs": [
        {
          "components": [
            {
              "internalType": "bytes16",
              "name": "parkNumber",
              "type": "bytes16"
            },
            {
              "internalType": "address",
              "name": "owner",
              "type": "address"
            },
            {
              "internalType": "enum ParkingSpace.State",
              "name": "state",
              "type": "uint8"
            }
          ],
          "internalType": "struct ParkingSpace.General",
          "name": "",
          "type": "tuple"
        }
      ],
      "stateMutability": "view",
      "type": "function",
      "constant": true
    },
    {
      "inputs": [
        {
          "internalType": "uint256",
          "name": "index",
          "type": "uint256"
        }
      ],
      "name": "getParkHashAtIndex",
      "outputs": [
        {
          "internalType": "bytes32",
          "name": "",
          "type": "bytes32"
        }
      ],
      "stateMutability": "view",
      "type": "function",
      "constant": true
    },
    {
      "inputs": [
        {
          "internalType": "bytes32",
          "name": "_parkHash",
          "type": "bytes32"
        }
      ],
      "name": "getParkByHash",
      "outputs": [
        {
          "components": [
            {
              "internalType": "uint256",
              "name": "id",
              "type": "uint256"
            },
            {
              "internalType": "bytes16",
              "name": "parkNumber",
              "type": "bytes16"
            },
            {
              "internalType": "uint256",
              "name": "startTimeStamp",
              "type": "uint256"
            },
            {
              "internalType": "uint256",
              "name": "price",
              "type": "uint256"
            },
            {
              "internalType": "bytes32",
              "name": "proof",
              "type": "bytes32"
            },
            {
              "internalType": "address",
              "name": "owner",
              "type": "address"
            },
            {
              "internalType": "bool",
              "name": "valid",
              "type": "bool"
            },
            {
              "internalType": "enum ParkingSpace.State",
              "name": "state",
              "type": "uint8"
            }
          ],
          "internalType": "struct ParkingSpace.Space",
          "name": "",
          "type": "tuple"
        }
      ],
      "stateMutability": "view",
      "type": "function",
      "constant": true
    }
  ],
  "bytecode": "0x608060405260006008553480156200001657600080fd5b5062000028336200030a60201b60201c565b620000386200034e60201b60201c565b620000486200051060201b60201c565b60005b6002805490508160ff161015620003035760005b6003805490508160ff161015620002ec57600060028360ff16815481106200008c576200008b62000a22565b5b9060005260206000200160038360ff1681548110620000b057620000af62000a22565b5b90600052602060002001604051602001620000cd92919062000b60565b604051602081830303815290604052620000e79062000bf3565b905060085460066000836fffffffffffffffffffffffffffffffff19166fffffffffffffffffffffffffffffffff191681526020019081526020016000208190555060016040518060600160405280836fffffffffffffffffffffffffffffffff19168152602001600960009054906101000a900473ffffffffffffffffffffffffffffffffffffffff1673ffffffffffffffffffffffffffffffffffffffff168152602001600180811115620001a357620001a262000c63565b5b815250908060018154018082558091505060019003906000526020600020906002020160009091909190915060008201518160000160006101000a8154816fffffffffffffffffffffffffffffffff021916908360801c021790555060208201518160010160006101000a81548173ffffffffffffffffffffffffffffffffffffffff021916908373ffffffffffffffffffffffffffffffffffffffff16021790555060408201518160010160146101000a81548160ff0219169083600181111562000274576200027362000c63565b5b0217905550505060085460066000836fffffffffffffffffffffffffffffffff19166fffffffffffffffffffffffffffffffff191681526020019081526020016000208190555060086000815480929190620002d09062000ccb565b9190505550508080620002e39062000d25565b9150506200005f565b508080620002fa9062000d25565b9150506200004b565b5062000d53565b80600960006101000a81548173ffffffffffffffffffffffffffffffffffffffff021916908373ffffffffffffffffffffffffffffffffffffffff16021790555050565b600280600181540180825580915050600190039060005260206000200160006040518060400160405280600281526020017f303100000000000000000000000000000000000000000000000000000000000081525090919091509080519060200190620003bd92919062000972565b50600280600181540180825580915050600190039060005260206000200160006040518060400160405280600281526020017f3032000000000000000000000000000000000000000000000000000000000000815250909190915090805190602001906200042d92919062000972565b50600280600181540180825580915050600190039060005260206000200160006040518060400160405280600281526020017f3033000000000000000000000000000000000000000000000000000000000000815250909190915090805190602001906200049d92919062000972565b50600280600181540180825580915050600190039060005260206000200160006040518060400160405280600281526020017f3034000000000000000000000000000000000000000000000000000000000000815250909190915090805190602001906200050d92919062000972565b50565b600380600181540180825580915050600190039060005260206000200160006040518060400160405280600481526020017f4130303100000000000000000000000000000000000000000000000000000000815250909190915090805190602001906200057f92919062000972565b50600380600181540180825580915050600190039060005260206000200160006040518060400160405280600481526020017f413030320000000000000000000000000000000000000000000000000000000081525090919091509080519060200190620005ef92919062000972565b50600380600181540180825580915050600190039060005260206000200160006040518060400160405280600481526020017f4130303300000000000000000000000000000000000000000000000000000000815250909190915090805190602001906200065f92919062000972565b50600380600181540180825580915050600190039060005260206000200160006040518060400160405280600481526020017f413030340000000000000000000000000000000000000000000000000000000081525090919091509080519060200190620006cf92919062000972565b50600380600181540180825580915050600190039060005260206000200160006040518060400160405280600481526020017f4130303500000000000000000000000000000000000000000000000000000000815250909190915090805190602001906200073f92919062000972565b50600380600181540180825580915050600190039060005260206000200160006040518060400160405280600481526020017f413030360000000000000000000000000000000000000000000000000000000081525090919091509080519060200190620007af92919062000972565b50600380600181540180825580915050600190039060005260206000200160006040518060400160405280600481526020017f4130303700000000000000000000000000000000000000000000000000000000815250909190915090805190602001906200081f92919062000972565b50600380600181540180825580915050600190039060005260206000200160006040518060400160405280600481526020017f4130303800000000000000000000000000000000000000000000000000000000815250909190915090805190602001906200088f92919062000972565b50600380600181540180825580915050600190039060005260206000200160006040518060400160405280600481526020017f413030390000000000000000000000000000000000000000000000000000000081525090919091509080519060200190620008ff92919062000972565b50600380600181540180825580915050600190039060005260206000200160006040518060400160405280600481526020017f4130313000000000000000000000000000000000000000000000000000000000815250909190915090805190602001906200096f92919062000972565b50565b828054620009809062000a80565b90600052602060002090601f016020900481019282620009a45760008555620009f0565b82601f10620009bf57805160ff1916838001178555620009f0565b82800160010185558215620009f0579182015b82811115620009ef578251825591602001919060010190620009d2565b5b509050620009ff919062000a03565b5090565b5b8082111562000a1e57600081600090555060010162000a04565b5090565b7f4e487b7100000000000000000000000000000000000000000000000000000000600052603260045260246000fd5b7f4e487b7100000000000000000000000000000000000000000000000000000000600052602260045260246000fd5b6000600282049050600182168062000a9957607f821691505b60208210810362000aaf5762000aae62000a51565b5b50919050565b600081905092915050565b60008190508160005260206000209050919050565b6000815462000ae48162000a80565b62000af0818662000ab5565b9450600182166000811462000b0e576001811462000b205762000b57565b60ff1983168652818601935062000b57565b62000b2b8562000ac0565b60005b8381101562000b4f5781548189015260018201915060208101905062000b2e565b838801955050505b50505092915050565b600062000b6e828562000ad5565b915062000b7c828462000ad5565b91508190509392505050565b600081519050919050565b6000819050602082019050919050565b60007fffffffffffffffffffffffffffffffff0000000000000000000000000000000082169050919050565b600062000bdd825162000ba3565b80915050919050565b600082821b905092915050565b600062000c008262000b88565b8262000c0c8462000b93565b905062000c198162000bcf565b9250601082101562000c5c5762000c577fffffffffffffffffffffffffffffffff000000000000000000000000000000008360100360080262000be6565b831692505b5050919050565b7f4e487b7100000000000000000000000000000000000000000000000000000000600052602160045260246000fd5b7f4e487b7100000000000000000000000000000000000000000000000000000000600052601160045260246000fd5b6000819050919050565b600062000cd88262000cc1565b91507fffffffffffffffffffffffffffffffffffffffffffffffffffffffffffffffff820362000d0d5762000d0c62000c92565b5b600182019050919050565b600060ff82169050919050565b600062000d328262000d18565b915060ff820362000d485762000d4762000c92565b5b600182019050919050565b6122118062000d636000396000f3fe6080604052600436106100915760003560e01c806383550e551161005957806383550e55146101965780638f8af210146101b25780639885f3fa146101ef578063c7fe0ac91461021a578063f2fde38b1461024557610091565b80631e026dde14610096578063442890d5146100c157806358e6a443146100ec578063675ebd2e1461012957806380e6be1414610166575b600080fd5b3480156100a257600080fd5b506100ab61026e565b6040516100b8919061195b565b60405180910390f35b3480156100cd57600080fd5b506100d66103df565b6040516100e3919061198c565b60405180910390f35b3480156100f857600080fd5b50610113600480360381019061010e91906119e7565b610409565b6040516101209190611ab6565b60405180910390f35b34801561013557600080fd5b50610150600480360381019061014b9190611afe565b610548565b60405161015d9190611b3a565b60405180910390f35b610180600480360381019061017b9190611b81565b610565565b60405161018d9190611b3a565b60405180910390f35b6101b060048036038101906101ab9190611bc1565b610a29565b005b3480156101be57600080fd5b506101d960048036038101906101d49190611d34565b611235565b6040516101e69190611dbf565b60405180910390f35b3480156101fb57600080fd5b50610204611387565b6040516102119190611de9565b60405180910390f35b34801561022657600080fd5b5061022f611391565b60405161023c9190611ef5565b60405180910390f35b34801561025157600080fd5b5061026c60048036038101906102679190611f43565b6114be565b005b60606000805480602002602001604051908101604052809291908181526020016000905b828210156103d6578382906000526020600020906006020160405180610100016040529081600082015481526020016001820160009054906101000a900460801b6fffffffffffffffffffffffffffffffff19166fffffffffffffffffffffffffffffffff191681526020016002820154815260200160038201548152602001600482015481526020016005820160009054906101000a900473ffffffffffffffffffffffffffffffffffffffff1673ffffffffffffffffffffffffffffffffffffffff1673ffffffffffffffffffffffffffffffffffffffff1681526020016005820160149054906101000a900460ff161515151581526020016005820160159054906101000a900460ff1660018111156103b1576103b06117be565b5b60018111156103c3576103c26117be565b5b8152505081526020019060010190610292565b50505050905090565b6000600960009054906101000a900473ffffffffffffffffffffffffffffffffffffffff16905090565b6104116115e8565b6004600083815260200190815260200160002060405180610100016040529081600082015481526020016001820160009054906101000a900460801b6fffffffffffffffffffffffffffffffff19166fffffffffffffffffffffffffffffffff191681526020016002820154815260200160038201548152602001600482015481526020016005820160009054906101000a900473ffffffffffffffffffffffffffffffffffffffff1673ffffffffffffffffffffffffffffffffffffffff1673ffffffffffffffffffffffffffffffffffffffff1681526020016005820160149054906101000a900460ff161515151581526020016005820160159054906101000a900460ff16600181111561052b5761052a6117be565b5b600181111561053d5761053c6117be565b5b815250509050919050565b600060056000838152602001908152602001600020549050919050565b600080833360405160200161057b929190611fd9565b60405160208183030381529060405280519060200120905061059c81611536565b156105d3576040517f0523842e00000000000000000000000000000000000000000000000000000000815260040160405180910390fd5b33600160066000876fffffffffffffffffffffffffffffffff19166fffffffffffffffffffffffffffffffff19168152602001908152602001600020548154811061062157610620612005565b5b906000526020600020906002020160010160006101000a81548173ffffffffffffffffffffffffffffffffffffffff021916908373ffffffffffffffffffffffffffffffffffffffff16021790555060006007600081548092919061068590612063565b919050559050816005600083815260200190815260200160002081905550604051806101000160405280828152602001866fffffffffffffffffffffffffffffffff191681526020014281526020013481526020018581526020013373ffffffffffffffffffffffffffffffffffffffff16815260200160011515815260200160006001811115610719576107186117be565b5b815250600460008481526020019081526020016000206000820151816000015560208201518160010160006101000a8154816fffffffffffffffffffffffffffffffff021916908360801c021790555060408201518160020155606082015181600301556080820151816004015560a08201518160050160006101000a81548173ffffffffffffffffffffffffffffffffffffffff021916908373ffffffffffffffffffffffffffffffffffffffff16021790555060c08201518160050160146101000a81548160ff02191690831515021790555060e08201518160050160156101000a81548160ff02191690836001811115610819576108186117be565b5b02179055509050506000600460008481526020019081526020016000209080600181540180825580915050600190039060005260206000209060060201600090919091909150600082015481600001556001820160009054906101000a900460801b8160010160006101000a8154816fffffffffffffffffffffffffffffffff021916908360801c02179055506002820154816002015560038201548160030155600482015481600401556005820160009054906101000a900473ffffffffffffffffffffffffffffffffffffffff168160050160006101000a81548173ffffffffffffffffffffffffffffffffffffffff021916908373ffffffffffffffffffffffffffffffffffffffff1602179055506005820160149054906101000a900460ff168160050160146101000a81548160ff0219169083151502179055506005820160159054906101000a900460ff168160050160156101000a81548160ff021916908360018111156109905761098f6117be565b5b021790555050506000600160066000886fffffffffffffffffffffffffffffffff19166fffffffffffffffffffffffffffffffff1916815260200190815260200160002054815481106109e6576109e5612005565b5b906000526020600020906002020160010160146101000a81548160ff02191690836001811115610a1957610a186117be565b5b0217905550819250505092915050565b60008133604051602001610a3e929190611fd9565b6040516020818303038152906040528051906020012090506004600082815260200190815260200160002060050160149054906101000a900460ff16610a845750611232565b60006004600083815260200190815260200160002060405180610100016040529081600082015481526020016001820160009054906101000a900460801b6fffffffffffffffffffffffffffffffff19166fffffffffffffffffffffffffffffffff191681526020016002820154815260200160038201548152602001600482015481526020016005820160009054906101000a900473ffffffffffffffffffffffffffffffffffffffff1673ffffffffffffffffffffffffffffffffffffffff1673ffffffffffffffffffffffffffffffffffffffff1681526020016005820160149054906101000a900460ff161515151581526020016005820160159054906101000a900460ff166001811115610ba057610b9f6117be565b5b6001811115610bb257610bb16117be565b5b81525050905060008160000151905060006001600080549050610bd591906120ab565b9050808203610d5f576000805480610bf057610bef6120df565b5b60019003818190600052602060002090600602016000808201600090556001820160006101000a8154906fffffffffffffffffffffffffffffffff02191690556002820160009055600382016000905560048201600090556005820160006101000a81549073ffffffffffffffffffffffffffffffffffffffff02191690556005820160146101000a81549060ff02191690556005820160156101000a81549060ff021916905550509055600460008581526020019081526020016000206000808201600090556001820160006101000a8154906fffffffffffffffffffffffffffffffff02191690556002820160009055600382016000905560048201600090556005820160006101000a81549073ffffffffffffffffffffffffffffffffffffffff02191690556005820160146101000a81549060ff02191690556005820160156101000a81549060ff0219169055505060056000838152602001908152602001600020600090556110d0565b60008181548110610d7357610d72612005565b5b906000526020600020906006020160008381548110610d9557610d94612005565b5b9060005260206000209060060201600082015481600001556001820160009054906101000a900460801b8160010160006101000a8154816fffffffffffffffffffffffffffffffff021916908360801c02179055506002820154816002015560038201548160030155600482015481600401556005820160009054906101000a900473ffffffffffffffffffffffffffffffffffffffff168160050160006101000a81548173ffffffffffffffffffffffffffffffffffffffff021916908373ffffffffffffffffffffffffffffffffffffffff1602179055506005820160149054906101000a900460ff168160050160146101000a81548160ff0219169083151502179055506005820160159054906101000a900460ff168160050160156101000a81548160ff02191690836001811115610ed457610ed36117be565b5b02179055509050506000805480610eee57610eed6120df565b5b60019003818190600052602060002090600602016000808201600090556001820160006101000a8154906fffffffffffffffffffffffffffffffff02191690556002820160009055600382016000905560048201600090556005820160006101000a81549073ffffffffffffffffffffffffffffffffffffffff02191690556005820160146101000a81549060ff02191690556005820160156101000a81549060ff0219169055505090556000808381548110610fae57610fad612005565b5b906000526020600020906006020160010160009054906101000a900460801b33604051602001610fdf929190611fd9565b604051602081830303815290604052805190602001209050806005600085815260200190815260200160002081905550600460008681526020019081526020016000206000808201600090556001820160006101000a8154906fffffffffffffffffffffffffffffffff02191690556002820160009055600382016000905560048201600090556005820160006101000a81549073ffffffffffffffffffffffffffffffffffffffff02191690556005820160146101000a81549060ff02191690556005820160156101000a81549060ff021916905550506005600084815260200190815260200160002060009055505b600960009054906101000a900473ffffffffffffffffffffffffffffffffffffffff16600160066000886fffffffffffffffffffffffffffffffff19166fffffffffffffffffffffffffffffffff1916815260200190815260200160002054815481106111405761113f612005565b5b906000526020600020906002020160010160006101000a81548173ffffffffffffffffffffffffffffffffffffffff021916908373ffffffffffffffffffffffffffffffffffffffff16021790555060018060066000886fffffffffffffffffffffffffffffffff19166fffffffffffffffffffffffffffffffff1916815260200190815260200160002054815481106111dd576111dc612005565b5b906000526020600020906002020160010160146101000a81548160ff021916908360018111156112105761120f6117be565b5b0217905550600760008154809291906112289061210e565b9190505550505050505b50565b61123d61166d565b60008261124990612174565b9050600160066000836fffffffffffffffffffffffffffffffff19166fffffffffffffffffffffffffffffffff19168152602001908152602001600020548154811061129857611297612005565b5b90600052602060002090600202016040518060600160405290816000820160009054906101000a900460801b6fffffffffffffffffffffffffffffffff19166fffffffffffffffffffffffffffffffff191681526020016001820160009054906101000a900473ffffffffffffffffffffffffffffffffffffffff1673ffffffffffffffffffffffffffffffffffffffff1673ffffffffffffffffffffffffffffffffffffffff1681526020016001820160149054906101000a900460ff166001811115611369576113686117be565b5b600181111561137b5761137a6117be565b5b81525050915050919050565b6000600754905090565b60606001805480602002602001604051908101604052809291908181526020016000905b828210156114b557838290600052602060002090600202016040518060600160405290816000820160009054906101000a900460801b6fffffffffffffffffffffffffffffffff19166fffffffffffffffffffffffffffffffff191681526020016001820160009054906101000a900473ffffffffffffffffffffffffffffffffffffffff1673ffffffffffffffffffffffffffffffffffffffff1673ffffffffffffffffffffffffffffffffffffffff1681526020016001820160149054906101000a900460ff1660018111156114905761148f6117be565b5b60018111156114a2576114a16117be565b5b81525050815260200190600101906113b5565b50505050905090565b6114c66103df565b73ffffffffffffffffffffffffffffffffffffffff163373ffffffffffffffffffffffffffffffffffffffff161461152a576040517f5fc483c500000000000000000000000000000000000000000000000000000000815260040160405180910390fd5b611533816115a4565b50565b60003373ffffffffffffffffffffffffffffffffffffffff166004600084815260200190815260200160002060050160009054906101000a900473ffffffffffffffffffffffffffffffffffffffff1673ffffffffffffffffffffffffffffffffffffffff16149050919050565b80600960006101000a81548173ffffffffffffffffffffffffffffffffffffffff021916908373ffffffffffffffffffffffffffffffffffffffff16021790555050565b6040518061010001604052806000815260200160006fffffffffffffffffffffffffffffffff19168152602001600081526020016000815260200160008019168152602001600073ffffffffffffffffffffffffffffffffffffffff16815260200160001515815260200160006001811115611667576116666117be565b5b81525090565b604051806060016040528060006fffffffffffffffffffffffffffffffff19168152602001600073ffffffffffffffffffffffffffffffffffffffff168152602001600060018111156116c3576116c26117be565b5b81525090565b600081519050919050565b600082825260208201905092915050565b6000819050602082019050919050565b6000819050919050565b611708816116f5565b82525050565b60007fffffffffffffffffffffffffffffffff0000000000000000000000000000000082169050919050565b6117438161170e565b82525050565b6000819050919050565b61175c81611749565b82525050565b600073ffffffffffffffffffffffffffffffffffffffff82169050919050565b600061178d82611762565b9050919050565b61179d81611782565b82525050565b60008115159050919050565b6117b8816117a3565b82525050565b7f4e487b7100000000000000000000000000000000000000000000000000000000600052602160045260246000fd5b600281106117fe576117fd6117be565b5b50565b600081905061180f826117ed565b919050565b600061181f82611801565b9050919050565b61182f81611814565b82525050565b6101008201600082015161184c60008501826116ff565b50602082015161185f602085018261173a565b50604082015161187260408501826116ff565b50606082015161188560608501826116ff565b5060808201516118986080850182611753565b5060a08201516118ab60a0850182611794565b5060c08201516118be60c08501826117af565b5060e08201516118d160e0850182611826565b50505050565b60006118e38383611835565b6101008301905092915050565b6000602082019050919050565b6000611908826116c9565b61191281856116d4565b935061191d836116e5565b8060005b8381101561194e57815161193588826118d7565b9750611940836118f0565b925050600181019050611921565b5085935050505092915050565b6000602082019050818103600083015261197581846118fd565b905092915050565b61198681611782565b82525050565b60006020820190506119a1600083018461197d565b92915050565b6000604051905090565b600080fd5b600080fd5b6119c481611749565b81146119cf57600080fd5b50565b6000813590506119e1816119bb565b92915050565b6000602082840312156119fd576119fc6119b1565b5b6000611a0b848285016119d2565b91505092915050565b61010082016000820151611a2b60008501826116ff565b506020820151611a3e602085018261173a565b506040820151611a5160408501826116ff565b506060820151611a6460608501826116ff565b506080820151611a776080850182611753565b5060a0820151611a8a60a0850182611794565b5060c0820151611a9d60c08501826117af565b5060e0820151611ab060e0850182611826565b50505050565b600061010082019050611acc6000830184611a14565b92915050565b611adb816116f5565b8114611ae657600080fd5b50565b600081359050611af881611ad2565b92915050565b600060208284031215611b1457611b136119b1565b5b6000611b2284828501611ae9565b91505092915050565b611b3481611749565b82525050565b6000602082019050611b4f6000830184611b2b565b92915050565b611b5e8161170e565b8114611b6957600080fd5b50565b600081359050611b7b81611b55565b92915050565b60008060408385031215611b9857611b976119b1565b5b6000611ba685828601611b6c565b9250506020611bb7858286016119d2565b9150509250929050565b600060208284031215611bd757611bd66119b1565b5b6000611be584828501611b6c565b91505092915050565b600080fd5b600080fd5b6000601f19601f8301169050919050565b7f4e487b7100000000000000000000000000000000000000000000000000000000600052604160045260246000fd5b611c4182611bf8565b810181811067ffffffffffffffff82111715611c6057611c5f611c09565b5b80604052505050565b6000611c736119a7565b9050611c7f8282611c38565b919050565b600067ffffffffffffffff821115611c9f57611c9e611c09565b5b611ca882611bf8565b9050602081019050919050565b82818337600083830152505050565b6000611cd7611cd284611c84565b611c69565b905082815260208101848484011115611cf357611cf2611bf3565b5b611cfe848285611cb5565b509392505050565b600082601f830112611d1b57611d1a611bee565b5b8135611d2b848260208601611cc4565b91505092915050565b600060208284031215611d4a57611d496119b1565b5b600082013567ffffffffffffffff811115611d6857611d676119b6565b5b611d7484828501611d06565b91505092915050565b606082016000820151611d93600085018261173a565b506020820151611da66020850182611794565b506040820151611db96040850182611826565b50505050565b6000606082019050611dd46000830184611d7d565b92915050565b611de3816116f5565b82525050565b6000602082019050611dfe6000830184611dda565b92915050565b600081519050919050565b600082825260208201905092915050565b6000819050602082019050919050565b606082016000820151611e46600085018261173a565b506020820151611e596020850182611794565b506040820151611e6c6040850182611826565b50505050565b6000611e7e8383611e30565b60608301905092915050565b6000602082019050919050565b6000611ea282611e04565b611eac8185611e0f565b9350611eb783611e20565b8060005b83811015611ee8578151611ecf8882611e72565b9750611eda83611e8a565b925050600181019050611ebb565b5085935050505092915050565b60006020820190508181036000830152611f0f8184611e97565b905092915050565b611f2081611782565b8114611f2b57600080fd5b50565b600081359050611f3d81611f17565b92915050565b600060208284031215611f5957611f586119b1565b5b6000611f6784828501611f2e565b91505092915050565b6000819050919050565b611f8b611f868261170e565b611f70565b82525050565b60008160601b9050919050565b6000611fa982611f91565b9050919050565b6000611fbb82611f9e565b9050919050565b611fd3611fce82611782565b611fb0565b82525050565b6000611fe58285611f7a565b601082019150611ff58284611fc2565b6014820191508190509392505050565b7f4e487b7100000000000000000000000000000000000000000000000000000000600052603260045260246000fd5b7f4e487b7100000000000000000000000000000000000000000000000000000000600052601160045260246000fd5b600061206e826116f5565b91507fffffffffffffffffffffffffffffffffffffffffffffffffffffffffffffffff82036120a05761209f612034565b5b600182019050919050565b60006120b6826116f5565b91506120c1836116f5565b9250828210156120d4576120d3612034565b5b828203905092915050565b7f4e487b7100000000000000000000000000000000000000000000000000000000600052603160045260246000fd5b6000612119826116f5565b91506000820361212c5761212b612034565b5b600182039050919050565b600081519050919050565b6000819050602082019050919050565b600061215e825161170e565b80915050919050565b600082821b905092915050565b600061217f82612137565b8261218984612142565b905061219481612152565b925060108210156121d4576121cf7fffffffffffffffffffffffffffffffff0000000000000000000000000000000083601003600802612167565b831692505b505091905056fea264697066735822122071b75786ea692a5d518701a216dc357ac6c9d3a3240f29c174a8f0bef6b1ece064736f6c634300080d0033",
  "immutableReferences": {},
  "source": "// SPDX-License-Identifier: GPL-3.0\n\npragma solidity >=0.4.18 <0.9.0;\n\ncontract ParkingSpace {\n    //[()()]\n    enum State {\n        Booked,\n        Available\n    }\n\n    struct Space {\n        uint256 id; // \n        bytes16 parkNumber; // (ID+: 01A001K11A001)\n        uint256 startTimeStamp; //  unix\n        uint256 price; // \n        bytes32 proof; // bytes32\n        address owner; // \n        bool valid;\n        State state; // 1\n    }\n    struct General {\n        bytes16 parkNumber; // (ID+: 01A001K11A001)\n        address owner; // (owner)\n        State state; // 1\n    }\n\n    Space[] OwnedParkings;\n    General[] ParkingPool;\n\n    string[] private mallNumberList;\n    string[] private spaceNumberList;\n\n    // mapping of parkHash to Parking Space\n    mapping(bytes32 => Space) private bookedParkingSpace;\n    // mapping of parkNumber to parkHash\n    mapping(uint256 => bytes32) private bookedParkingSpaceHash;\n    mapping(bytes16 => uint256) private GeneralArrayRetreiver;\n    // number of all booked Parking Space\n    uint256 private totalBookedParkingSpace;\n    uint256 private ParkingSpaceCount = 0;\n    address payable private owner;\n\n    constructor() {\n        setContractOwner(msg.sender);\n        _getMallNumberList();\n        _getSpaceNumberList();\n        for (uint8 i = 0; i < mallNumberList.length; i++) {\n            for (uint8 j = 0; j < spaceNumberList.length; j++) {\n                bytes16 parkNumber = bytes16(\n                    bytes(string.concat(mallNumberList[i], spaceNumberList[j]))\n                );\n                GeneralArrayRetreiver[parkNumber] = ParkingSpaceCount;\n                ParkingPool.push(\n                    General({\n                        parkNumber: parkNumber,\n                        owner: owner,\n                        state: State.Available\n                    })\n                );\n                GeneralArrayRetreiver[parkNumber] = ParkingSpaceCount;\n                ParkingSpaceCount++;\n            }\n        }\n    }\n\n    error ParkHasOwner();\n    error OnlyOwner();\n\n    // owner\n    modifier onlyOwner() {\n        if (msg.sender != getContractOwner()) {\n            revert OnlyOwner();\n        }\n        _;\n    }\n\n    function releasePark(bytes16 _parkNumber) external payable {\n        //\n        bytes32 parkHash = keccak256(abi.encodePacked(_parkNumber, msg.sender));\n        //\n        if (!bookedParkingSpace[parkHash].valid) {\n            return;\n        }\n        Space memory target = bookedParkingSpace[parkHash];\n        // ,\n        uint256 parkIndex = target.id;\n        uint256 lastParkIndex = OwnedParkings.length - 1;\n        if (parkIndex == lastParkIndex) {\n            OwnedParkings.pop();\n            delete bookedParkingSpace[parkHash];\n            delete bookedParkingSpaceHash[parkIndex];\n        } else {\n            // \n            OwnedParkings[parkIndex] = OwnedParkings[lastParkIndex];\n            OwnedParkings.pop();\n            // map\n            bytes32 lastParkHash = keccak256(\n                abi.encodePacked(\n                    OwnedParkings[parkIndex].parkNumber,\n                    msg.sender\n                )\n            );\n            bookedParkingSpaceHash[parkIndex] = lastParkHash;\n            // index\n            delete bookedParkingSpace[parkHash];\n            delete bookedParkingSpaceHash[parkIndex];\n        }\n        ParkingPool[GeneralArrayRetreiver[_parkNumber]].owner = owner;\n        ParkingPool[GeneralArrayRetreiver[_parkNumber]].state = State.Available;\n        totalBookedParkingSpace--;\n    }\n\n    function bookPark(bytes16 _parkNumber, bytes32 proof)\n        external\n        payable\n        returns (bytes32)\n    {\n        //parkNumber= 01A001bytes160x00000000000000000000484965484849\n        //proof:0x0000000000000000000048496548484900000000000000000000484965484849\n        //address=0x5B38Da6a701c568545dCfcB03FcB875f56beddC4\n\n        //hash0x000000000000000000004849654848495B38Da6a701c568545dCfcB03FcB875f56beddC4\n        //keccak: 0xd795db9290f77fe7d947409e98cb61c34c31603fc7c066356532aca15c706dcb\n        bytes32 parkHash = keccak256(abi.encodePacked(_parkNumber, msg.sender));\n\n        if (hasParkOwnership(parkHash)) {\n            revert ParkHasOwner();\n        }\n\n        ParkingPool[GeneralArrayRetreiver[_parkNumber]].owner = msg.sender;\n        uint256 id = totalBookedParkingSpace++;\n        bookedParkingSpaceHash[id] = parkHash;\n        bookedParkingSpace[parkHash] = Space({\n            id: id,\n            parkNumber: _parkNumber,\n            price: msg.value,\n            proof: proof,\n            valid: true,\n            owner: msg.sender,\n            startTimeStamp: block.timestamp,\n            state: State.Booked\n        });\n        OwnedParkings.push(bookedParkingSpace[parkHash]);\n        ParkingPool[GeneralArrayRetreiver[_parkNumber]].state = State.Booked;\n        return parkHash;\n    }\n\n    // \n    function transferOwnership(address newOwner) external onlyOwner {\n        setContractOwner(newOwner);\n    }\n\n    // \n    function getContractOwner() public view returns (address) {\n        return owner;\n    }\n\n    // ()\n    function getParkCount() external view returns (uint256) {\n        return totalBookedParkingSpace;\n    }\n\n    // ()\n    function getOwnedParkList() external view returns (Space[] memory) {\n        return OwnedParkings;\n    }\n\n    //\n    function getParkingPool() external view returns (General[] memory) {\n        return ParkingPool;\n    }\n\n    //general\n    function getGeneralParking(string memory _parkNumberString)\n        external\n        view\n        returns (General memory)\n    {\n        bytes16 key = bytes16(bytes(_parkNumberString));\n        return ParkingPool[GeneralArrayRetreiver[key]];\n    }\n\n    // indexparkHash\n    function getParkHashAtIndex(uint256 index) external view returns (bytes32) {\n        return bookedParkingSpaceHash[index];\n    }\n\n    // parkHashSpace\n    function getParkByHash(bytes32 _parkHash)\n        external\n        view\n        returns (Space memory)\n    {\n        return bookedParkingSpace[_parkHash];\n    }\n\n    // \n    function setContractOwner(address newOwner) private {\n        owner = payable(newOwner);\n    }\n\n    // \n    function hasParkOwnership(bytes32 _parkHash) private view returns (bool) {\n        return bookedParkingSpace[_parkHash].owner == msg.sender;\n    }\n\n    function _getMallNumberList() private {\n        mallNumberList.push(\"01\");\n        mallNumberList.push(\"02\");\n        mallNumberList.push(\"03\");\n        mallNumberList.push(\"04\");\n    }\n\n    function _getSpaceNumberList() private {\n        spaceNumberList.push(\"A001\");\n        spaceNumberList.push(\"A002\");\n        spaceNumberList.push(\"A003\");\n        spaceNumberList.push(\"A004\");\n        spaceNumberList.push(\"A005\");\n        spaceNumberList.push(\"A006\");\n        spaceNumberList.push(\"A007\");\n        spaceNumberList.push(\"A008\");\n        spaceNumberList.push(\"A009\");\n        spaceNumberList.push(\"A010\");\n    }\n}\n",
  "sourcePath": "/Volumes/Samsung_T5//2022-/ //blockchain/parkingspace_eth/contracts/ParkingSpace.sol",
  "compiler": {
    "name": "solc",
    "version": "0.8.13+commit.abaa5c0e.Emscripten.clang"
  },
  "schemaVersion": "3.4.6",
  "updatedAt": "2022-05-24T06:21:55.857Z",
  "networkType": "ethereum",
  "devdoc": {
    "kind": "dev",
    "methods": {},
    "version": 1
  },
  "userdoc": {
    "kind": "user",
    "methods": {},
    "version": 1
  }
}