{
  "contractName": "ParkingSpace",
  "abi": [
    {
      "inputs": [],
      "stateMutability": "nonpayable",
      "type": "constructor"
    },
    {
      "inputs": [],
      "name": "OnlyOwner",
      "type": "error"
    },
    {
      "inputs": [],
      "name": "ParkHasOwner",
      "type": "error"
    },
    {
      "inputs": [
        {
          "internalType": "bytes16",
          "name": "_parkNumber",
          "type": "bytes16"
        }
      ],
      "name": "releasePark",
      "outputs": [],
      "stateMutability": "nonpayable",
      "type": "function"
    },
    {
      "inputs": [
        {
          "internalType": "bytes16",
          "name": "_parkNumber",
          "type": "bytes16"
        },
        {
          "internalType": "bytes32",
          "name": "proof",
          "type": "bytes32"
        }
      ],
      "name": "bookPark",
      "outputs": [
        {
          "internalType": "bytes32",
          "name": "",
          "type": "bytes32"
        }
      ],
      "stateMutability": "payable",
      "type": "function",
      "payable": true
    },
    {
      "inputs": [
        {
          "internalType": "address",
          "name": "newOwner",
          "type": "address"
        }
      ],
      "name": "transferOwnership",
      "outputs": [],
      "stateMutability": "nonpayable",
      "type": "function"
    },
    {
      "inputs": [],
      "name": "getContractOwner",
      "outputs": [
        {
          "internalType": "address",
          "name": "",
          "type": "address"
        }
      ],
      "stateMutability": "view",
      "type": "function",
      "constant": true
    },
    {
      "inputs": [],
      "name": "getParkCount",
      "outputs": [
        {
          "internalType": "uint256",
          "name": "",
          "type": "uint256"
        }
      ],
      "stateMutability": "view",
      "type": "function",
      "constant": true
    },
    {
      "inputs": [],
      "name": "getOwnedParkList",
      "outputs": [
        {
          "components": [
            {
              "internalType": "uint256",
              "name": "id",
              "type": "uint256"
            },
            {
              "internalType": "bytes16",
              "name": "parkNumber",
              "type": "bytes16"
            },
            {
              "internalType": "uint256",
              "name": "startTimeStamp",
              "type": "uint256"
            },
            {
              "internalType": "uint256",
              "name": "price",
              "type": "uint256"
            },
            {
              "internalType": "bytes32",
              "name": "proof",
              "type": "bytes32"
            },
            {
              "internalType": "address",
              "name": "owner",
              "type": "address"
            },
            {
              "internalType": "bool",
              "name": "valid",
              "type": "bool"
            },
            {
              "internalType": "enum ParkingSpace.State",
              "name": "state",
              "type": "uint8"
            }
          ],
          "internalType": "struct ParkingSpace.Space[]",
          "name": "",
          "type": "tuple[]"
        }
      ],
      "stateMutability": "view",
      "type": "function",
      "constant": true
    },
    {
      "inputs": [
        {
          "internalType": "uint256",
          "name": "index",
          "type": "uint256"
        }
      ],
      "name": "getParkHashAtIndex",
      "outputs": [
        {
          "internalType": "bytes32",
          "name": "",
          "type": "bytes32"
        }
      ],
      "stateMutability": "view",
      "type": "function",
      "constant": true
    },
    {
      "inputs": [
        {
          "internalType": "bytes32",
          "name": "_parkHash",
          "type": "bytes32"
        }
      ],
      "name": "getParkByHash",
      "outputs": [
        {
          "components": [
            {
              "internalType": "uint256",
              "name": "id",
              "type": "uint256"
            },
            {
              "internalType": "bytes16",
              "name": "parkNumber",
              "type": "bytes16"
            },
            {
              "internalType": "uint256",
              "name": "startTimeStamp",
              "type": "uint256"
            },
            {
              "internalType": "uint256",
              "name": "price",
              "type": "uint256"
            },
            {
              "internalType": "bytes32",
              "name": "proof",
              "type": "bytes32"
            },
            {
              "internalType": "address",
              "name": "owner",
              "type": "address"
            },
            {
              "internalType": "bool",
              "name": "valid",
              "type": "bool"
            },
            {
              "internalType": "enum ParkingSpace.State",
              "name": "state",
              "type": "uint8"
            }
          ],
          "internalType": "struct ParkingSpace.Space",
          "name": "",
          "type": "tuple"
        }
      ],
      "stateMutability": "view",
      "type": "function",
      "constant": true
    }
  ],
  "bytecode": "0x608060405234801561001057600080fd5b506100203361002560201b60201c565b610069565b80600560006101000a81548173ffffffffffffffffffffffffffffffffffffffff021916908373ffffffffffffffffffffffffffffffffffffffff16021790555050565b611916806100786000396000f3fe60806040526004361061007b5760003560e01c806380e6be141161004e57806380e6be141461015057806383550e55146101805780639885f3fa146101a9578063f2fde38b146101d45761007b565b80631e026dde14610080578063442890d5146100ab57806358e6a443146100d6578063675ebd2e14610113575b600080fd5b34801561008c57600080fd5b506100956101fd565b6040516100a29190611412565b60405180910390f35b3480156100b757600080fd5b506100c061036e565b6040516100cd9190611443565b60405180910390f35b3480156100e257600080fd5b506100fd60048036038101906100f8919061148f565b610398565b60405161010a919061155e565b60405180910390f35b34801561011f57600080fd5b5061013a600480360381019061013591906115a6565b6104d7565b60405161014791906115e2565b60405180910390f35b61016a60048036038101906101659190611629565b6104f4565b60405161017791906115e2565b60405180910390f35b34801561018c57600080fd5b506101a760048036038101906101a29190611669565b610894565b005b3480156101b557600080fd5b506101be610fc7565b6040516101cb91906116a5565b60405180910390f35b3480156101e057600080fd5b506101fb60048036038101906101f691906116ec565b610fd1565b005b60606001805480602002602001604051908101604052809291908181526020016000905b82821015610365578382906000526020600020906006020160405180610100016040529081600082015481526020016001820160009054906101000a900460801b6fffffffffffffffffffffffffffffffff19166fffffffffffffffffffffffffffffffff191681526020016002820154815260200160038201548152602001600482015481526020016005820160009054906101000a900473ffffffffffffffffffffffffffffffffffffffff1673ffffffffffffffffffffffffffffffffffffffff1673ffffffffffffffffffffffffffffffffffffffff1681526020016005820160149054906101000a900460ff161515151581526020016005820160159054906101000a900460ff1660028111156103405761033f611275565b5b600281111561035257610351611275565b5b8152505081526020019060010190610221565b50505050905090565b6000600560009054906101000a900473ffffffffffffffffffffffffffffffffffffffff16905090565b6103a06110fb565b6002600083815260200190815260200160002060405180610100016040529081600082015481526020016001820160009054906101000a900460801b6fffffffffffffffffffffffffffffffff19166fffffffffffffffffffffffffffffffff191681526020016002820154815260200160038201548152602001600482015481526020016005820160009054906101000a900473ffffffffffffffffffffffffffffffffffffffff1673ffffffffffffffffffffffffffffffffffffffff1673ffffffffffffffffffffffffffffffffffffffff1681526020016005820160149054906101000a900460ff161515151581526020016005820160159054906101000a900460ff1660028111156104ba576104b9611275565b5b60028111156104cc576104cb611275565b5b815250509050919050565b600060036000838152602001908152602001600020549050919050565b600080833360405160200161050a929190611782565b60405160208183030381529060405280519060200120905061052b81611049565b15610562576040517f0523842e00000000000000000000000000000000000000000000000000000000815260040160405180910390fd5b600060046000815480929190610577906117dd565b919050559050816003600083815260200190815260200160002081905550604051806101000160405280828152602001866fffffffffffffffffffffffffffffffff191681526020014281526020013481526020018581526020013373ffffffffffffffffffffffffffffffffffffffff1681526020016001151581526020016001600281111561060b5761060a611275565b5b815250600260008481526020019081526020016000206000820151816000015560208201518160010160006101000a8154816fffffffffffffffffffffffffffffffff021916908360801c021790555060408201518160020155606082015181600301556080820151816004015560a08201518160050160006101000a81548173ffffffffffffffffffffffffffffffffffffffff021916908373ffffffffffffffffffffffffffffffffffffffff16021790555060c08201518160050160146101000a81548160ff02191690831515021790555060e08201518160050160156101000a81548160ff0219169083600281111561070b5761070a611275565b5b02179055509050506001600260008481526020019081526020016000209080600181540180825580915050600190039060005260206000209060060201600090919091909150600082015481600001556001820160009054906101000a900460801b8160010160006101000a8154816fffffffffffffffffffffffffffffffff021916908360801c02179055506002820154816002015560038201548160030155600482015481600401556005820160009054906101000a900473ffffffffffffffffffffffffffffffffffffffff168160050160006101000a81548173ffffffffffffffffffffffffffffffffffffffff021916908373ffffffffffffffffffffffffffffffffffffffff1602179055506005820160149054906101000a900460ff168160050160146101000a81548160ff0219169083151502179055506005820160159054906101000a900460ff168160050160156101000a81548160ff0219169083600281111561088257610881611275565b5b02179055505050819250505092915050565b61089c61036e565b73ffffffffffffffffffffffffffffffffffffffff163373ffffffffffffffffffffffffffffffffffffffff1614610900576040517f5fc483c500000000000000000000000000000000000000000000000000000000815260040160405180910390fd5b60008133604051602001610915929190611782565b6040516020818303038152906040528051906020012090506002600082815260200190815260200160002060050160149054906101000a900460ff1661095b5750610fc4565b60006002600083815260200190815260200160002060405180610100016040529081600082015481526020016001820160009054906101000a900460801b6fffffffffffffffffffffffffffffffff19166fffffffffffffffffffffffffffffffff191681526020016002820154815260200160038201548152602001600482015481526020016005820160009054906101000a900473ffffffffffffffffffffffffffffffffffffffff1673ffffffffffffffffffffffffffffffffffffffff1673ffffffffffffffffffffffffffffffffffffffff1681526020016005820160149054906101000a900460ff161515151581526020016005820160159054906101000a900460ff166002811115610a7757610a76611275565b5b6002811115610a8957610a88611275565b5b815250509050600081600001519050600060018080549050610aab9190611825565b9050808203610c35576001805480610ac657610ac5611859565b5b60019003818190600052602060002090600602016000808201600090556001820160006101000a8154906fffffffffffffffffffffffffffffffff02191690556002820160009055600382016000905560048201600090556005820160006101000a81549073ffffffffffffffffffffffffffffffffffffffff02191690556005820160146101000a81549060ff02191690556005820160156101000a81549060ff021916905550509055600260008581526020019081526020016000206000808201600090556001820160006101000a8154906fffffffffffffffffffffffffffffffff02191690556002820160009055600382016000905560048201600090556005820160006101000a81549073ffffffffffffffffffffffffffffffffffffffff02191690556005820160146101000a81549060ff02191690556005820160156101000a81549060ff021916905550506003600083815260200190815260200160002060009055610fa7565b60018181548110610c4957610c48611888565b5b906000526020600020906006020160018381548110610c6b57610c6a611888565b5b9060005260206000209060060201600082015481600001556001820160009054906101000a900460801b8160010160006101000a8154816fffffffffffffffffffffffffffffffff021916908360801c02179055506002820154816002015560038201548160030155600482015481600401556005820160009054906101000a900473ffffffffffffffffffffffffffffffffffffffff168160050160006101000a81548173ffffffffffffffffffffffffffffffffffffffff021916908373ffffffffffffffffffffffffffffffffffffffff1602179055506005820160149054906101000a900460ff168160050160146101000a81548160ff0219169083151502179055506005820160159054906101000a900460ff168160050160156101000a81548160ff02191690836002811115610daa57610da9611275565b5b02179055509050506001805480610dc457610dc3611859565b5b60019003818190600052602060002090600602016000808201600090556001820160006101000a8154906fffffffffffffffffffffffffffffffff02191690556002820160009055600382016000905560048201600090556005820160006101000a81549073ffffffffffffffffffffffffffffffffffffffff02191690556005820160146101000a81549060ff02191690556005820160156101000a81549060ff021916905550509055600060018381548110610e8557610e84611888565b5b906000526020600020906006020160010160009054906101000a900460801b33604051602001610eb6929190611782565b604051602081830303815290604052805190602001209050806003600085815260200190815260200160002081905550600260008681526020019081526020016000206000808201600090556001820160006101000a8154906fffffffffffffffffffffffffffffffff02191690556002820160009055600382016000905560048201600090556005820160006101000a81549073ffffffffffffffffffffffffffffffffffffffff02191690556005820160146101000a81549060ff02191690556005820160156101000a81549060ff021916905550506003600084815260200190815260200160002060009055505b60046000815480929190610fba906118b7565b9190505550505050505b50565b6000600454905090565b610fd961036e565b73ffffffffffffffffffffffffffffffffffffffff163373ffffffffffffffffffffffffffffffffffffffff161461103d576040517f5fc483c500000000000000000000000000000000000000000000000000000000815260040160405180910390fd5b611046816110b7565b50565b60003373ffffffffffffffffffffffffffffffffffffffff166002600084815260200190815260200160002060050160009054906101000a900473ffffffffffffffffffffffffffffffffffffffff1673ffffffffffffffffffffffffffffffffffffffff16149050919050565b80600560006101000a81548173ffffffffffffffffffffffffffffffffffffffff021916908373ffffffffffffffffffffffffffffffffffffffff16021790555050565b6040518061010001604052806000815260200160006fffffffffffffffffffffffffffffffff19168152602001600081526020016000815260200160008019168152602001600073ffffffffffffffffffffffffffffffffffffffff1681526020016000151581526020016000600281111561117a57611179611275565b5b81525090565b600081519050919050565b600082825260208201905092915050565b6000819050602082019050919050565b6000819050919050565b6111bf816111ac565b82525050565b60007fffffffffffffffffffffffffffffffff0000000000000000000000000000000082169050919050565b6111fa816111c5565b82525050565b6000819050919050565b61121381611200565b82525050565b600073ffffffffffffffffffffffffffffffffffffffff82169050919050565b600061124482611219565b9050919050565b61125481611239565b82525050565b60008115159050919050565b61126f8161125a565b82525050565b7f4e487b7100000000000000000000000000000000000000000000000000000000600052602160045260246000fd5b600381106112b5576112b4611275565b5b50565b60008190506112c6826112a4565b919050565b60006112d6826112b8565b9050919050565b6112e6816112cb565b82525050565b6101008201600082015161130360008501826111b6565b50602082015161131660208501826111f1565b50604082015161132960408501826111b6565b50606082015161133c60608501826111b6565b50608082015161134f608085018261120a565b5060a082015161136260a085018261124b565b5060c082015161137560c0850182611266565b5060e082015161138860e08501826112dd565b50505050565b600061139a83836112ec565b6101008301905092915050565b6000602082019050919050565b60006113bf82611180565b6113c9818561118b565b93506113d48361119c565b8060005b838110156114055781516113ec888261138e565b97506113f7836113a7565b9250506001810190506113d8565b5085935050505092915050565b6000602082019050818103600083015261142c81846113b4565b905092915050565b61143d81611239565b82525050565b60006020820190506114586000830184611434565b92915050565b600080fd5b61146c81611200565b811461147757600080fd5b50565b60008135905061148981611463565b92915050565b6000602082840312156114a5576114a461145e565b5b60006114b38482850161147a565b91505092915050565b610100820160008201516114d360008501826111b6565b5060208201516114e660208501826111f1565b5060408201516114f960408501826111b6565b50606082015161150c60608501826111b6565b50608082015161151f608085018261120a565b5060a082015161153260a085018261124b565b5060c082015161154560c0850182611266565b5060e082015161155860e08501826112dd565b50505050565b60006101008201905061157460008301846114bc565b92915050565b611583816111ac565b811461158e57600080fd5b50565b6000813590506115a08161157a565b92915050565b6000602082840312156115bc576115bb61145e565b5b60006115ca84828501611591565b91505092915050565b6115dc81611200565b82525050565b60006020820190506115f760008301846115d3565b92915050565b611606816111c5565b811461161157600080fd5b50565b600081359050611623816115fd565b92915050565b600080604083850312156116405761163f61145e565b5b600061164e85828601611614565b925050602061165f8582860161147a565b9150509250929050565b60006020828403121561167f5761167e61145e565b5b600061168d84828501611614565b91505092915050565b61169f816111ac565b82525050565b60006020820190506116ba6000830184611696565b92915050565b6116c981611239565b81146116d457600080fd5b50565b6000813590506116e6816116c0565b92915050565b6000602082840312156117025761170161145e565b5b6000611710848285016116d7565b91505092915050565b6000819050919050565b61173461172f826111c5565b611719565b82525050565b60008160601b9050919050565b60006117528261173a565b9050919050565b600061176482611747565b9050919050565b61177c61177782611239565b611759565b82525050565b600061178e8285611723565b60108201915061179e828461176b565b6014820191508190509392505050565b7f4e487b7100000000000000000000000000000000000000000000000000000000600052601160045260246000fd5b60006117e8826111ac565b91507fffffffffffffffffffffffffffffffffffffffffffffffffffffffffffffffff820361181a576118196117ae565b5b600182019050919050565b6000611830826111ac565b915061183b836111ac565b92508282101561184e5761184d6117ae565b5b828203905092915050565b7f4e487b7100000000000000000000000000000000000000000000000000000000600052603160045260246000fd5b7f4e487b7100000000000000000000000000000000000000000000000000000000600052603260045260246000fd5b60006118c2826111ac565b9150600082036118d5576118d46117ae565b5b60018203905091905056fea2646970667358221220cb85bcb9c2dfc09404a392b80218548465357681e72f3dd7d7c4408bfec453f264736f6c634300080d0033",
  "immutableReferences": {},
  "source": "// SPDX-License-Identifier: GPL-3.0\n\npragma solidity >=0.4.18 <0.9.0;\n\ninterface test {\n    //Btest\n    //interfaceexternal\n    function timeCalculator(address _to, uint256 _value)\n        external\n        returns (bool);\n}\n\ncontract ParkingSpace {\n    //[()()]\n    enum State {\n        Purchased,\n        Booked,\n        Available\n    }\n    test timeCalculator;\n\n    struct Space {\n        uint256 id; // \n        bytes16 parkNumber; // (ID+: 01A001K11A001)\n        uint256 startTimeStamp; //  unix\n        uint256 price; // \n        bytes32 proof; // bytes32\n        address owner; // \n        bool valid;\n        State state; // 1\n    }\n\n    Space[] OwnedParkings;\n    // mapping of parkHash to Parking Space\n    mapping(bytes32 => Space) private bookedParkingSpace;\n    // mapping of parkNumber to parkHash\n    mapping(uint256 => bytes32) private bookedParkingSpaceHash;\n    // number of all booked Parking Space\n    uint256 private totalBookedParkingSpace;\n\n    address payable private owner;\n\n    constructor() {\n        setContractOwner(msg.sender);\n    }\n\n    error ParkHasOwner();\n    error OnlyOwner();\n\n    // owner\n    modifier onlyOwner() {\n        if (msg.sender != getContractOwner()) {\n            revert OnlyOwner();\n        }\n        _;\n    }\n\n    function releasePark(bytes16 _parkNumber) public onlyOwner {\n        //\n        bytes32 parkHash = keccak256(abi.encodePacked(_parkNumber, msg.sender));\n        //\n        if (!bookedParkingSpace[parkHash].valid) {\n            return;\n        }\n        Space memory target = bookedParkingSpace[parkHash];\n        // ,\n        uint256 parkIndex = target.id;\n        uint256 lastParkIndex = OwnedParkings.length - 1;\n        if (parkIndex == lastParkIndex) {\n            OwnedParkings.pop();\n            delete bookedParkingSpace[parkHash];\n            delete bookedParkingSpaceHash[parkIndex];\n        } else {\n            // \n            OwnedParkings[parkIndex] = OwnedParkings[lastParkIndex];\n            OwnedParkings.pop();\n            // map\n            bytes32 lastParkHash = keccak256(\n                abi.encodePacked(\n                    OwnedParkings[parkIndex].parkNumber,\n                    msg.sender\n                )\n            );\n            bookedParkingSpaceHash[parkIndex] = lastParkHash;\n            // index\n            delete bookedParkingSpace[parkHash];\n            delete bookedParkingSpaceHash[parkIndex];\n        }\n        totalBookedParkingSpace--;\n    }\n\n    function bookPark(bytes16 _parkNumber, bytes32 proof)\n        external\n        payable\n        returns (bytes32)\n    {\n        //parkNumber= 01A001bytes160x00000000000000000000484965484849\n        //proof:0x0000000000000000000048496548484900000000000000000000484965484849\n        //address=0x5B38Da6a701c568545dCfcB03FcB875f56beddC4\n\n        //hash0x000000000000000000004849654848495B38Da6a701c568545dCfcB03FcB875f56beddC4\n        //keccak: 0xd795db9290f77fe7d947409e98cb61c34c31603fc7c066356532aca15c706dcb\n        bytes32 parkHash = keccak256(abi.encodePacked(_parkNumber, msg.sender));\n\n        if (hasParkOwnership(parkHash)) {\n            revert ParkHasOwner();\n        }\n\n        uint256 id = totalBookedParkingSpace++;\n        bookedParkingSpaceHash[id] = parkHash;\n        bookedParkingSpace[parkHash] = Space({\n            id: id,\n            parkNumber: _parkNumber,\n            price: msg.value,\n            proof: proof,\n            valid: true,\n            owner: msg.sender,\n            startTimeStamp: block.timestamp,\n            state: State.Booked\n        });\n        OwnedParkings.push(bookedParkingSpace[parkHash]);\n        return parkHash;\n    }\n\n    // \n    function transferOwnership(address newOwner) external onlyOwner {\n        setContractOwner(newOwner);\n    }\n\n    // \n    function getContractOwner() public view returns (address) {\n        return owner;\n    }\n\n    // ()\n    function getParkCount() external view returns (uint256) {\n        return totalBookedParkingSpace;\n    }\n\n    // ()\n    function getOwnedParkList() external view returns (Space[] memory) {\n        return OwnedParkings;\n    }\n\n    // indexparkHash\n    function getParkHashAtIndex(uint256 index) external view returns (bytes32) {\n        return bookedParkingSpaceHash[index];\n    }\n\n    // parkHashSpace\n    function getParkByHash(bytes32 _parkHash)\n        external\n        view\n        returns (Space memory)\n    {\n        return bookedParkingSpace[_parkHash];\n    }\n\n    // \n    function setContractOwner(address newOwner) private {\n        owner = payable(newOwner);\n    }\n\n    // \n    function hasParkOwnership(bytes32 _parkHash) private view returns (bool) {\n        return bookedParkingSpace[_parkHash].owner == msg.sender;\n    }\n}\n",
  "sourcePath": "/Volumes/Samsung_T5//2022-/ //blockchain/parkingspace_eth/contracts/ParkingSpace.sol",
  "compiler": {
    "name": "solc",
    "version": "0.8.13+commit.abaa5c0e.Emscripten.clang"
  },
  "schemaVersion": "3.4.6",
  "updatedAt": "2022-05-22T16:44:47.300Z",
  "networkType": "ethereum",
  "devdoc": {
    "kind": "dev",
    "methods": {},
    "version": 1
  },
  "userdoc": {
    "kind": "user",
    "methods": {},
    "version": 1
  }
}