{
  "contractName": "ParkingSpace",
  "abi": [
    {
      "inputs": [],
      "stateMutability": "nonpayable",
      "type": "constructor"
    },
    {
      "inputs": [],
      "name": "OnlyOwner",
      "type": "error"
    },
    {
      "inputs": [],
      "name": "ParkHasOwner",
      "type": "error"
    },
    {
      "inputs": [
        {
          "internalType": "bytes16",
          "name": "_parkNumber",
          "type": "bytes16"
        }
      ],
      "name": "releasePark",
      "outputs": [],
      "stateMutability": "nonpayable",
      "type": "function"
    },
    {
      "inputs": [
        {
          "internalType": "bytes16",
          "name": "_parkNumber",
          "type": "bytes16"
        },
        {
          "internalType": "bytes32",
          "name": "proof",
          "type": "bytes32"
        }
      ],
      "name": "bookPark",
      "outputs": [
        {
          "internalType": "bytes32",
          "name": "",
          "type": "bytes32"
        }
      ],
      "stateMutability": "payable",
      "type": "function",
      "payable": true
    },
    {
      "inputs": [
        {
          "internalType": "address",
          "name": "newOwner",
          "type": "address"
        }
      ],
      "name": "transferOwnership",
      "outputs": [],
      "stateMutability": "nonpayable",
      "type": "function"
    },
    {
      "inputs": [],
      "name": "getContractOwner",
      "outputs": [
        {
          "internalType": "address",
          "name": "",
          "type": "address"
        }
      ],
      "stateMutability": "view",
      "type": "function",
      "constant": true
    },
    {
      "inputs": [],
      "name": "getParkCount",
      "outputs": [
        {
          "internalType": "uint256",
          "name": "",
          "type": "uint256"
        }
      ],
      "stateMutability": "view",
      "type": "function",
      "constant": true
    },
    {
      "inputs": [
        {
          "internalType": "uint256",
          "name": "index",
          "type": "uint256"
        }
      ],
      "name": "getParkHashAtIndex",
      "outputs": [
        {
          "internalType": "bytes32",
          "name": "",
          "type": "bytes32"
        }
      ],
      "stateMutability": "view",
      "type": "function",
      "constant": true
    },
    {
      "inputs": [
        {
          "internalType": "bytes32",
          "name": "_parkHash",
          "type": "bytes32"
        }
      ],
      "name": "getParkByHash",
      "outputs": [
        {
          "components": [
            {
              "internalType": "uint256",
              "name": "id",
              "type": "uint256"
            },
            {
              "internalType": "bytes16",
              "name": "parkNumber",
              "type": "bytes16"
            },
            {
              "internalType": "uint256",
              "name": "startTimeStamp",
              "type": "uint256"
            },
            {
              "internalType": "uint256",
              "name": "price",
              "type": "uint256"
            },
            {
              "internalType": "bytes32",
              "name": "proof",
              "type": "bytes32"
            },
            {
              "internalType": "address",
              "name": "owner",
              "type": "address"
            },
            {
              "internalType": "bool",
              "name": "valid",
              "type": "bool"
            },
            {
              "internalType": "enum ParkingSpace.State",
              "name": "state",
              "type": "uint8"
            }
          ],
          "internalType": "struct ParkingSpace.Space",
          "name": "",
          "type": "tuple"
        }
      ],
      "stateMutability": "view",
      "type": "function",
      "constant": true
    }
  ],
  "bytecode": "0x608060405234801561001057600080fd5b506100203361002560201b60201c565b610069565b80600460006101000a81548173ffffffffffffffffffffffffffffffffffffffff021916908373ffffffffffffffffffffffffffffffffffffffff16021790555050565b610f9c806100786000396000f3fe6080604052600436106100705760003560e01c806380e6be141161004e57806380e6be141461011a57806383550e551461014a5780639885f3fa14610173578063f2fde38b1461019e57610070565b8063442890d51461007557806358e6a443146100a0578063675ebd2e146100dd575b600080fd5b34801561008157600080fd5b5061008a6101c7565b6040516100979190610a4d565b60405180910390f35b3480156100ac57600080fd5b506100c760048036038101906100c29190610aa3565b6101f1565b6040516100d49190610c76565b60405180910390f35b3480156100e957600080fd5b5061010460048036038101906100ff9190610cbe565b610330565b6040516101119190610cfa565b60405180910390f35b610134600480360381019061012f9190610d41565b61034d565b6040516101419190610cfa565b60405180910390f35b34801561015657600080fd5b50610171600480360381019061016c9190610d81565b610577565b005b34801561017f57600080fd5b50610188610853565b6040516101959190610dbd565b60405180910390f35b3480156101aa57600080fd5b506101c560048036038101906101c09190610e04565b61085d565b005b6000600460009054906101000a900473ffffffffffffffffffffffffffffffffffffffff16905090565b6101f9610987565b6001600083815260200190815260200160002060405180610100016040529081600082015481526020016001820160009054906101000a900460801b6fffffffffffffffffffffffffffffffff19166fffffffffffffffffffffffffffffffff191681526020016002820154815260200160038201548152602001600482015481526020016005820160009054906101000a900473ffffffffffffffffffffffffffffffffffffffff1673ffffffffffffffffffffffffffffffffffffffff1673ffffffffffffffffffffffffffffffffffffffff1681526020016005820160149054906101000a900460ff161515151581526020016005820160159054906101000a900460ff16600281111561031357610312610b5d565b5b600281111561032557610324610b5d565b5b815250509050919050565b600060026000838152602001908152602001600020549050919050565b6000808333604051602001610363929190610e9a565b604051602081830303815290604052805190602001209050610384816108d5565b156103bb576040517f0523842e00000000000000000000000000000000000000000000000000000000815260040160405180910390fd5b6000600360008154809291906103d090610ef5565b919050559050816002600083815260200190815260200160002081905550604051806101000160405280828152602001866fffffffffffffffffffffffffffffffff191681526020014281526020013481526020018581526020013373ffffffffffffffffffffffffffffffffffffffff1681526020016001151581526020016001600281111561046457610463610b5d565b5b815250600160008481526020019081526020016000206000820151816000015560208201518160010160006101000a8154816fffffffffffffffffffffffffffffffff021916908360801c021790555060408201518160020155606082015181600301556080820151816004015560a08201518160050160006101000a81548173ffffffffffffffffffffffffffffffffffffffff021916908373ffffffffffffffffffffffffffffffffffffffff16021790555060c08201518160050160146101000a81548160ff02191690831515021790555060e08201518160050160156101000a81548160ff0219169083600281111561056457610563610b5d565b5b0217905550905050819250505092915050565b61057f6101c7565b73ffffffffffffffffffffffffffffffffffffffff163373ffffffffffffffffffffffffffffffffffffffff16146105e3576040517f5fc483c500000000000000000000000000000000000000000000000000000000815260040160405180910390fd5b600081336040516020016105f8929190610e9a565b6040516020818303038152906040528051906020012090506001600082815260200190815260200160002060050160149054906101000a900460ff1661063e5750610850565b60006001600083815260200190815260200160002060405180610100016040529081600082015481526020016001820160009054906101000a900460801b6fffffffffffffffffffffffffffffffff19166fffffffffffffffffffffffffffffffff191681526020016002820154815260200160038201548152602001600482015481526020016005820160009054906101000a900473ffffffffffffffffffffffffffffffffffffffff1673ffffffffffffffffffffffffffffffffffffffff1673ffffffffffffffffffffffffffffffffffffffff1681526020016005820160149054906101000a900460ff161515151581526020016005820160159054906101000a900460ff16600281111561075a57610759610b5d565b5b600281111561076c5761076b610b5d565b5b815250509050600160008381526020019081526020016000206000808201600090556001820160006101000a8154906fffffffffffffffffffffffffffffffff02191690556002820160009055600382016000905560048201600090556005820160006101000a81549073ffffffffffffffffffffffffffffffffffffffff02191690556005820160146101000a81549060ff02191690556005820160156101000a81549060ff021916905550506002600082600001518152602001908152602001600020600090556003600081548092919061084890610f3d565b919050555050505b50565b6000600354905090565b6108656101c7565b73ffffffffffffffffffffffffffffffffffffffff163373ffffffffffffffffffffffffffffffffffffffff16146108c9576040517f5fc483c500000000000000000000000000000000000000000000000000000000815260040160405180910390fd5b6108d281610943565b50565b60003373ffffffffffffffffffffffffffffffffffffffff166001600084815260200190815260200160002060050160009054906101000a900473ffffffffffffffffffffffffffffffffffffffff1673ffffffffffffffffffffffffffffffffffffffff16149050919050565b80600460006101000a81548173ffffffffffffffffffffffffffffffffffffffff021916908373ffffffffffffffffffffffffffffffffffffffff16021790555050565b6040518061010001604052806000815260200160006fffffffffffffffffffffffffffffffff19168152602001600081526020016000815260200160008019168152602001600073ffffffffffffffffffffffffffffffffffffffff16815260200160001515815260200160006002811115610a0657610a05610b5d565b5b81525090565b600073ffffffffffffffffffffffffffffffffffffffff82169050919050565b6000610a3782610a0c565b9050919050565b610a4781610a2c565b82525050565b6000602082019050610a626000830184610a3e565b92915050565b600080fd5b6000819050919050565b610a8081610a6d565b8114610a8b57600080fd5b50565b600081359050610a9d81610a77565b92915050565b600060208284031215610ab957610ab8610a68565b5b6000610ac784828501610a8e565b91505092915050565b6000819050919050565b610ae381610ad0565b82525050565b60007fffffffffffffffffffffffffffffffff0000000000000000000000000000000082169050919050565b610b1e81610ae9565b82525050565b610b2d81610a6d565b82525050565b610b3c81610a2c565b82525050565b60008115159050919050565b610b5781610b42565b82525050565b7f4e487b7100000000000000000000000000000000000000000000000000000000600052602160045260246000fd5b60038110610b9d57610b9c610b5d565b5b50565b6000819050610bae82610b8c565b919050565b6000610bbe82610ba0565b9050919050565b610bce81610bb3565b82525050565b61010082016000820151610beb6000850182610ada565b506020820151610bfe6020850182610b15565b506040820151610c116040850182610ada565b506060820151610c246060850182610ada565b506080820151610c376080850182610b24565b5060a0820151610c4a60a0850182610b33565b5060c0820151610c5d60c0850182610b4e565b5060e0820151610c7060e0850182610bc5565b50505050565b600061010082019050610c8c6000830184610bd4565b92915050565b610c9b81610ad0565b8114610ca657600080fd5b50565b600081359050610cb881610c92565b92915050565b600060208284031215610cd457610cd3610a68565b5b6000610ce284828501610ca9565b91505092915050565b610cf481610a6d565b82525050565b6000602082019050610d0f6000830184610ceb565b92915050565b610d1e81610ae9565b8114610d2957600080fd5b50565b600081359050610d3b81610d15565b92915050565b60008060408385031215610d5857610d57610a68565b5b6000610d6685828601610d2c565b9250506020610d7785828601610a8e565b9150509250929050565b600060208284031215610d9757610d96610a68565b5b6000610da584828501610d2c565b91505092915050565b610db781610ad0565b82525050565b6000602082019050610dd26000830184610dae565b92915050565b610de181610a2c565b8114610dec57600080fd5b50565b600081359050610dfe81610dd8565b92915050565b600060208284031215610e1a57610e19610a68565b5b6000610e2884828501610def565b91505092915050565b6000819050919050565b610e4c610e4782610ae9565b610e31565b82525050565b60008160601b9050919050565b6000610e6a82610e52565b9050919050565b6000610e7c82610e5f565b9050919050565b610e94610e8f82610a2c565b610e71565b82525050565b6000610ea68285610e3b565b601082019150610eb68284610e83565b6014820191508190509392505050565b7f4e487b7100000000000000000000000000000000000000000000000000000000600052601160045260246000fd5b6000610f0082610ad0565b91507fffffffffffffffffffffffffffffffffffffffffffffffffffffffffffffffff8203610f3257610f31610ec6565b5b600182019050919050565b6000610f4882610ad0565b915060008203610f5b57610f5a610ec6565b5b60018203905091905056fea2646970667358221220306926f761e2b67e09566c194b9f8bfffa9a013d256a224422049e173570a45964736f6c634300080d0033",
  "immutableReferences": {},
  "source": "// SPDX-License-Identifier: GPL-3.0\n\npragma solidity >=0.4.18 <0.9.0;\n\ninterface test {\n    //Btest\n    //interfaceexternal\n    function timeCalculator(address _to, uint256 _value)\n        external\n        returns (bool);\n}\n\ncontract ParkingSpace {\n    //[()()]\n    enum State {\n        Purchased,\n        Booked,\n        Available\n    }\n    test timeCalculator;\n\n    struct Space {\n        uint256 id; // \n        bytes16 parkNumber; // (ID+: 01A001K11A001)\n        uint256 startTimeStamp; //  unix\n        uint256 price; // \n        bytes32 proof; // 32\n        address owner; // \n        bool valid;\n        State state; // 1\n    }\n    // mapping of parkHash to Parking Space\n    mapping(bytes32 => Space) private bookedParkingSpace;\n    // mapping of parkNumber to parkHash\n    mapping(uint256 => bytes32) private bookedParkingSpaceHash;\n    // number of all booked Parking Space\n    uint256 private totalBookedParkingSpace;\n\n    address payable private owner;\n\n    constructor() {\n        setContractOwner(msg.sender);\n    }\n\n    error ParkHasOwner();\n    error OnlyOwner();\n\n    // owner\n    modifier onlyOwner() {\n        if (msg.sender != getContractOwner()) {\n            revert OnlyOwner();\n        }\n        _;\n    }\n\n    function releasePark(bytes16 _parkNumber) public onlyOwner {\n        //\n        bytes32 parkHash = keccak256(abi.encodePacked(_parkNumber, msg.sender));\n        //\n        if (!bookedParkingSpace[parkHash].valid) {\n            return;\n        }\n        Space memory target = bookedParkingSpace[parkHash];\n        // ,\n        delete bookedParkingSpace[parkHash];\n        delete bookedParkingSpaceHash[target.id];\n        totalBookedParkingSpace--;\n    }\n\n    function bookPark(bytes16 _parkNumber, bytes32 proof)\n        external\n        payable\n        returns (bytes32)\n    {\n        //parkNumber= 01A001bytes160x00000000000000000000484965484849\n        //proof:0x0000000000000000000048496548484900000000000000000000484965484849\n        //address=0x5B38Da6a701c568545dCfcB03FcB875f56beddC4\n\n        //hash0x000000000000000000004849654848495B38Da6a701c568545dCfcB03FcB875f56beddC4\n        //keccak: 0xd795db9290f77fe7d947409e98cb61c34c31603fc7c066356532aca15c706dcb\n        bytes32 parkHash = keccak256(abi.encodePacked(_parkNumber, msg.sender));\n\n        if (hasParkOwnership(parkHash)) {\n            revert ParkHasOwner();\n        }\n\n        uint256 id = totalBookedParkingSpace++;\n        bookedParkingSpaceHash[id] = parkHash;\n        bookedParkingSpace[parkHash] = Space({\n            id: id,\n            parkNumber: _parkNumber,\n            price: msg.value,\n            proof: proof,\n            valid: true,\n            owner: msg.sender,\n            startTimeStamp: block.timestamp,\n            state: State.Booked\n        });\n        return parkHash;\n    }\n\n    // \n    function transferOwnership(address newOwner) external onlyOwner {\n        setContractOwner(newOwner);\n    }\n\n    // \n    function getContractOwner() public view returns (address) {\n        return owner;\n    }\n\n    // ()\n    function getParkCount() external view returns (uint256) {\n        return totalBookedParkingSpace;\n    }\n\n    // indexparkHash\n    function getParkHashAtIndex(uint256 index) external view returns (bytes32) {\n        return bookedParkingSpaceHash[index];\n    }\n\n    // parkHashSpace\n    function getParkByHash(bytes32 _parkHash)\n        external\n        view\n        returns (Space memory)\n    {\n        return bookedParkingSpace[_parkHash];\n    }\n\n    // \n    function setContractOwner(address newOwner) private {\n        owner = payable(newOwner);\n    }\n\n    // \n    function hasParkOwnership(bytes32 _parkHash) private view returns (bool) {\n        return bookedParkingSpace[_parkHash].owner == msg.sender;\n    }\n}\n",
  "sourcePath": "/Volumes/Samsung_T5//2022-/ //blockchain/parkingspace_eth/contracts/ParkingSpace.sol",
  "compiler": {
    "name": "solc",
    "version": "0.8.13+commit.abaa5c0e.Emscripten.clang"
  },
  "schemaVersion": "3.4.6",
  "updatedAt": "2022-05-22T12:42:37.103Z",
  "networkType": "ethereum",
  "devdoc": {
    "kind": "dev",
    "methods": {},
    "version": 1
  },
  "userdoc": {
    "kind": "user",
    "methods": {},
    "version": 1
  }
}